:100000000C9461020C9489020C9489020C9489026C
:100010000C9489020C9489020C94A7020C94890216
:100020000C9489020C9489020C9489020C94890224
:100030000C9489020C9489020C9489020C94890214
:100040000C94DC1B0C9489020C94C21C0C94F41CC0
:100050000C9489020C9489020C9489020C948902F4
:100060000C945B140C948902084AD73B3BCE016E7A
:1000700084BCBFFDC12F3D6C74319ABD56833DDAFF
:100080003D00C77F11BED9E4BB4C3E916BAAAABE0E
:10009000000000803F00756E646566696E656420CF
:1000A0007061636B657420747970653A20007365C4
:1000B0006E645F4B2074696D6F75740073656E6458
:1000C0005F4B206F6B61790009205F623A20000965
:1000D000205F673A200009205F723A2000204143E8
:1000E0005400424F5400544F500046524F4E54005B
:1000F0004241434B004C4546542F544F5000524907
:10010000474854004320090009000900090009007C
:1001100009000900612F673A090043616C69627246
:100120006174696F6E2066696E69736865640053F7
:1001300074617274696E672063616C696272617464
:10014000696F6E000A000900090009000900090032
:1001500009000A0009000900090009000900090056
:1001600052656164696E672F5570646174696E676A
:1001700020696E7465726E616C2073656E736F7248
:10018000206F6666736574732E2E2E00706F776510
:10019000724D6F64652836292C2073687574646FFE
:1001A000776E002E00536C656570696E672E007067
:1001B0006F7765724D6F64652835292C20686962F8
:1001C00065726E61746500706F7765724D6F6465FE
:1001D0002832292C20726164696F20757000706F5D
:1001E0007765724D6F64652831292C204D454D533C
:1001F00020757000696E6974204932432E2E2E00DE
:10020000284E2F41290A005549443A20000920640C
:1002100061746172617465203235304B3A20000997
:10022000204352433A200050412D6C6576656C3A6C
:100230002000092064617461726174652032353078
:100240004B3A20002C2028646563293A200045455C
:1002500050524F4D2C20004E6574776F726B2049C1
:100260004420286F6374293A2000454550524F4D71
:100270002C20006D70752E696E697469616C697AE5
:1002800065004932432073657475700061766F6351
:100290006361646F2061696E6F20302E32303134BB
:1002A000313132363233353900504120506F776565
:1002B0007209203D2025530D0A00435243204C650E
:1002C0006E67746809203D2025530D0A004D6F6448
:1002D000656C0909203D2025530D0A0044617461B5
:1002E000205261746509203D2025530D0A004459B0
:1002F0004E50442F4645415455524500434F4E46BB
:1003000049470052465F53455455500052465F439B
:100310004800454E5F52584144445200454E5F41AB
:10032000410052585F50575F50302D360054585F8F
:10033000414444520052585F414444525F50322D70
:10034000350052585F414444525F50302D31000D0A
:100350000A002530327800203078002553092563C3
:10036000203D000D0A0020307825303278002553DA
:10037000092563203D004F4253455256455F54586E
:100380003D253032783A20504F4C535F434E543D18
:100390002578204152435F434E543D25780D0A0095
:1003A0005354415455530909203D203078253032AB
:1003B000782052585F44523D25782054585F44536A
:1003C0003D2578204D41585F52543D2578205258A4
:1003D0005F505F4E4F3D25782054585F46554C4C3A
:1003E0003D25780D0A001112131415160A0B0C0D79
:1003F0000E0F00010203040516040F040704000495
:1004000050415F4D41580050415F484947480050B6
:10041000415F4C4F570050415F4D494E0032042B15
:1004200004230431362062697473003820626974D1
:10043000730044697361626C65640049043F046E33
:10044000524632344C30312B006E524632344C30EE
:1004500031006604600458043235304B425053007A
:10046000324D42505300314D4250530000000008BD
:10047000000201000003040700000000000000006B
:10048000010204081020408001020408102001022B
:1004900004081020040404040404040402020202F8
:1004A00002020303030303030000000025002800E9
:1004B0002B0000000000240027002A00CB0E791337
:1004C000241D11241FBECFEFD8E0DEBFCDBF12E048
:1004D000A0E0B1E0E8EEFFE402C005900D92A23189
:1004E000B107D9F724E0A2E1B2E001C01D92A53026
:1004F000B207E1F714E0C2ECD4E004C02297FE0199
:100500000E94C824CC3BD107C9F70E9432210C9429
:10051000F2270C9400000E94261C60932502709321
:100520002602809327029093280208958A3008F0CB
:1005300089E0982F977083FD906284B7877F84BF8E
:1005400088E18093600090659093600008951F9209
:100550000F920FB60F9211248F939F9380911201E7
:1005600090911301019790931301809312019F9131
:100570008F910F900FBE0F901F90189583B7817FBA
:10058000846083BF83B7816083BF83B7816083BF8B
:10059000889583B78E7F83BF83B78E7F83BF08958F
:1005A000CF93DF93CDB7DEB7C058D1090FB6F8941B
:1005B000DEBF0FBECDBFFE01EB57FF4F4191519102
:1005C0009F0160E870E0CE0101960E940F25BE01F8
:1005D0006F5F7F4F82E693E00E940F1FC058DF4F8E
:1005E0000FB6F894DEBF0FBECDBFDF91CF91089557
:1005F0002F923F924F925F926F927F928F929F9233
:10060000AF92BF92CF92DF92EF92FF920F931F9320
:10061000CF93DF93CDB7DEB760970FB6F894DEBF08
:100620000FBECDBF62E08AE692E00E94DF1064E078
:100630008AE692E00E94001160E08AE692E00E9461
:10064000F51062E08AE692E00E94EA1060E671E04E
:1006500082E693E00E942C1F8AE692E00E94EE114F
:100660004AE050E0BC0182E693E00E94F31F6EE591
:1006700071E082E693E00E94EA1E8AE692E00E9420
:100680000A124AE050E0BC0182E693E00E94F31FA8
:100690006CE571E082E693E00E94EA1E8AE692E051
:1006A0000E9426124AE050E0BC0182E693E00E94DC
:1006B000F31F6AE571E082E693E00E94EA1E8AE693
:1006C00092E00E9442124AE050E0BC0182E693E0D0
:1006D0000E94F31F68E571E082E693E00E94EA1E43
:1006E0008AE692E00E9464124AE050E0BC0182E691
:1006F00093E00E94F31F66E571E082E693E00E94BA
:10070000EA1E8AE692E00E9486124AE050E0BC01AE
:1007100082E693E00E94F31F64E571E082E693E0D5
:100720000E94EA1E62E571E082E693E00E94EA1E02
:1007300066EF7FEF8AE692E00E945E1269E070E069
:100740008AE692E00E94801264E470E08AE692E019
:100750000E94A2128AE692E00E94EE114AE050E066
:10076000BC0182E693E00E94F31F60E571E082E63F
:1007700093E00E94EA1E8AE692E00E940A124AE092
:1007800050E0BC0182E693E00E94F31F6EE471E04A
:1007900082E693E00E94EA1E8AE692E00E94261218
:1007A0004AE050E0BC0182E693E00E94F31F6CE453
:1007B00071E082E693E00E94EA1E8AE692E00E94DF
:1007C00042124AE050E0BC0182E693E00E94F31F2F
:1007D0006AE471E082E693E00E94EA1E8AE692E013
:1007E0000E9464124AE050E0BC0182E693E00E945D
:1007F000F31F68E471E082E693E00E94EA1E8AE655
:1008000092E00E9486124AE050E0BC0182E693E04A
:100810000E94F31F66E471E082E693E00E94EA1E04
:1008200064E471E082E693E00E94EA1E6FE271E008
:1008300082E693E00E942C1F2EE5C22E22E0D22EEB
:1008400030E6E32E32E0F32E02E612E024E632E058
:1008500046E652E068E672E08AE692E00E940B11FA
:100860004AE0242E312C1D861E861F86188A198682
:100870001A861B861C861D821E821F82188619827C
:100880001A821B821C82812C912C54012401350177
:100890008EE5C82E82E0D82E90E6E92E92E0F92E61
:1008A00002E612E024E632E046E652E068E672E054
:1008B0008AE692E00E940B116091680270916902D1
:1008C000882777FD8095982F0E94B5229B01AC0167
:1008D000C301B2010E948A212B013C016091660292
:1008E00070916702882777FD8095982F0E94B52226
:1008F0009B01AC01C501B4010E948A214B015C013E
:100900006091640270916502882777FD8095982F29
:100910000E94B5229B01AC0169817A818B819C8107
:100920000E948A2169837A838B839C83609162020F
:1009300070916302882777FD8095982F0E94B522D9
:100940009B01AC016D817E818F8198850E948A21F7
:100950006D837E838F8398876091600270916102BE
:10096000882777FD8095982F0E94B5229B01AC01C6
:1009700069857A858B859C850E948A2169877A871B
:100980008B879C8760915E0270915F02882777FD5C
:100990008095982F0E94B5229B01AC016D857E85C4
:1009A0008F8598890E948A216D877E878F87988B93
:1009B00064E670E080E090E00E94551C81E0281A17
:1009C000310809F065CF20E030E040E251E4C30196
:1009D000B2010E941A2260933E0270933F028093FC
:1009E00040029093410220E030E040E251E4C50132
:1009F000B4010E941A2260933A0270933B028093E2
:100A00003C0290933D0220E030E040E251E46981F5
:100A10007A818B819C810E941A22609336027093A6
:100A20003702809338029093390220E030E040E2B0
:100A300051E46D817E818F8198850E941A22609396
:100A4000320270933302809334029093350220E097
:100A500030E040E251E469857A858B859C850E946F
:100A60001A2260932E0270932F028093300290938B
:100A7000310220E030E040E251E46D857E858F85D3
:100A800098890E941A2260932A0270932B02809305
:100A90002C0290932D026AE171E082E693E0609669
:100AA0000FB6F894DEBF0FBECDBFDF91CF911F917F
:100AB0000F91FF90EF90DF90CF90BF90AF909F90FD
:100AC0008F907F906F905F904F903F902F900C94FD
:100AD0002C1FCF92DF92EF92FF920F931F935EE550
:100AE000C52E52E0D52E60E6E62E62E0F62E02E636
:100AF00012E024E632E046E652E068E672E08AE67A
:100B000092E00E940B1164E171E082E693E00E94A2
:100B1000EA1E60916802709169024AE050E082E644
:100B200093E00E94F31F62E171E082E693E00E948D
:100B3000EA1E60916602709167024AE050E082E628
:100B400093E00E94F31F60E171E082E693E00E946F
:100B5000EA1E60916402709165024AE050E082E60C
:100B600093E00E94F31F6EE071E082E693E00E9442
:100B7000EA1E60916202709163024AE050E082E6F0
:100B800093E00E94F31F6CE071E082E693E00E9424
:100B9000EA1E60916002709161024AE050E082E6D4
:100BA00093E00E94F31F6AE071E082E693E00E9406
:100BB000EA1E60915E0270915F024AE050E082E6B8
:100BC00093E00E94F31F68E071E082E693E00E94E8
:100BD000EA1E8AE692E00E947311BC01882777FD25
:100BE0008095982F0E94B52220E030EF41E456E432
:100BF0000E948A2120E030E04AEA53E40E941A224F
:100C0000AB01BC0123E030E082E693E00E942F219B
:100C100064E071E082E693E00E94EA1E82E693E0DF
:100C20001F910F91FF90EF90DF90CF900C94181FC1
:100C30004F925F926F927F928F929F92AF92BF92EC
:100C4000CF92DF92EF92FF920F931F93CF93DF9398
:100C5000CDB7DEB76C970FB6F894DEBF0FBECDBF31
:100C60007EE5C72E72E0D72EE0E6EE2EE2E0FE2E05
:100C700002E612E024E632E046E652E068E672E080
:100C80008AE692E00E940B110E94261C69837A83F7
:100C90008B839C836091680270916902882777FD3D
:100CA0008095982F0E94B5224B015C0160916602ED
:100CB00070916702882777FD8095982F0E94B52252
:100CC0006B017C016091640270916502882777FD59
:100CD0008095982F0E94B5229B01AC010E9495231C
:100CE0002B013C01A7019601C701B6010E94952383
:100CF000A30192010E948A210E94FC239B01AC0166
:100D0000C501B40190580E941A220E94EE21698701
:100D10007A878B879C87A5019401C501B4010E9445
:100D20009523A30192010E948A210E94FC239B012A
:100D3000AC01C701B6010E941A220E94EE216D8704
:100D40007E878F87988B80915A0290915B02A09149
:100D50005C02B0915D0229813A814B815C81281B44
:100D6000390B4A0B5B0BCA01B9010E94B32220E088
:100D700030E04AE754E40E941A226B017C01609142
:100D8000620270916302882777FD8095982F0E94F8
:100D9000B5222091320230913302409134025091B9
:100DA00035020E94892120E030E040E85DE30E94A6
:100DB0009523A70196010E9495234B015C01609148
:100DC000600270916102882777FD8095982F0E94BC
:100DD000B52220912E0230912F0240913002509185
:100DE00031020E94892120E030E040E85DE30E946A
:100DF0009523A70196010E9495232B013C01209188
:100E000052023091530240915402509155020E9477
:100E10008A21698B7A8B8B8B9C8B60915E0270919F
:100E20005F02882777FD8095982F0E94B522209138
:100E30002A0230912B0240912C0250912D020E94E7
:100E4000892120E030E040E85DE30E949523A7017E
:100E500096010E9495236B017C0120914E023091F6
:100E60004F0240915002509151020E948A216D839D
:100E70007E838F83988720914A0230914B02409164
:100E80004C0250914D02C501B4010E948A216D8B24
:100E90007E8B8F8B988F2091460230914702409134
:100EA000480250914902C301B2010E948A21698F10
:100EB0007A8F8B8F9C8F2091420230914302409118
:100EC000440250914502C701B6010E948A212B01BC
:100ED0003C012091560230915702409158025091A6
:100EE0005902C501B4010E948A2122E538EB4EE582
:100EF0005FE30E9495236B017C012DEE3EE245E607
:100F000052E46D857E858F8598890E94952328EB14
:100F10003EE145E05EE30E9495239B01AC01C701E1
:100F2000B6010E948A216B017C0160931F027093BD
:100F30002002809321029093220222E538EB4EE5B5
:100F40005FE369897A898B899C890E9495234B018B
:100F50005C012DEE3EE245E652E469857A858B859B
:100F60009C850E94952328EB3EE145E05EE30E94CC
:100F700095239B01AC01C501B4010E948A216093B5
:100F80001B0270931C0280931D0290931E022D8100
:100F90003E814F8158852093170230931802409369
:100FA000190250931A0229813A814B815C81209366
:100FB0005A0230935B0240935C0250935D02C092F0
:100FC0005602D0925702E0925802F0925902609372
:100FD00052027093530280935402909355028D8174
:100FE0009E81AF81B88580934E0290934F02A0936B
:100FF0005002B09351022D893E894F89588D20931C
:101000004A0230934B0240934C0250934D02898D1B
:101010009A8DAB8DBC8D8093460290934702A0932E
:101020004802B093490240924202509243026092B9
:101030004402709245026C960FB6F894DEBF0FBE64
:10104000CDBFDF91CF911F910F91FF90EF90DF9077
:10105000CF90BF90AF909F908F907F906F905F9058
:101060004F900895813011F461E003C0811104C0F4
:1010700060E083E00C94A61B823051F481E00E9472
:10108000320860E270E080E090E00E94551CF0CFF2
:10109000843071F486E490E00E94E80C6AEA70E023
:1010A00080E090E00E94551C86E290E00C94E80CF1
:1010B000853011F40C94F80C0895EF92FF920F9381
:1010C0001F93CF9361E083E00E946D1B80E00E943C
:1010D000320881E00E94320826E040E052EC61E0F4
:1010E00070E082E693E00E944A1E60E470E080E0D7
:1010F00090E00E94551C80E00E9432086CE872E08B
:1011000082E693E00E942C1F62E872E082E693E0A0
:101110000E942C1F88E992E00E943F1363E772E06F
:1011200082E693E00E942C1F8AE692E00E94A111C1
:1011300060E070E088E593E00E94411B8093150118
:101140006AE672E082E693E00E94EA1E4AE050E01E
:101150006091150182E693E00E94272067E572E026
:1011600082E693E00E94EA1E6FE070E088E593E07B
:101170000E94411BC82F60E170E088E593E00E9467
:10118000411B2C2F30E0322F2227280F311D3093A6
:101190008202209381026EE472E082E693E00E9474
:1011A000EA1E609181027091820248E050E082E67E
:1011B00093E00E943E2064E472E082E693E00E94A5
:1011C000EA1E60918102709182024AE050E082E65C
:1011D00093E00E943E2082E693E00E94181F0E9446
:1011E0002B1B87E892E00E94FF1963E087E892E0FA
:1011F0000E94841987E892E00E94661948E064E042
:1012000087E892E00E94221B6AE287E892E00E944F
:10121000EA1762E372E082E693E00E94EA1E87E842
:1012200092E00E94D3194AE050E0BC0182E693E0CC
:101230000E94FB1F62E070E087E892E00E94A31921
:1012400062E070E087E892E00E94E31967E272E0F2
:1012500082E693E00E94EA1E87E892E00E949D19D0
:101260004AE050E0682F82E693E00E9420206FE180
:1012700072E082E693E00E94EA1E87E892E00E9414
:10128000631A4AE050E0BC0182E693E00E94F31F3B
:101290006DE072E082E693E00E94EA1E87E892E049
:1012A0000E94D3194AE050E0BC0182E693E00E941C
:1012B000FB1F82E693E00E94181F81E090E090936C
:1012C00024028093230280910F018F9380910E015D
:1012D0008F938BEA91E09F938F930E94D0020F909F
:1012E0000F900F900F90809123029091240201970C
:1012F00079F400EA1EEA2EEA3EEA4EEA50E060E0A7
:1013000070E087E892E00E945218C1EAEC2E0EC00D
:1013100001EA1EEA2EEA3EEA4EEA50E060E070E0A2
:1013200087E892E00E945218B0EAEB2EAEEAFA2E5D
:101330000EEA2EEA30E040E050E061E087E892E01B
:101340000E948D1887E892E00E941A1987E892E0BF
:101350000E94811A82E693E00E94181F67E072E003
:1013600082E693E00E94EA1E60E072E082E693E08B
:101370000E94EA1E0E94261C9F938F937F936F9377
:1013800088EB91E09F938F930E94D00264EF71E00D
:1013900082E693E00E942C1F8AE692E00E94E6110A
:1013A0000F900F900F900F900F900F90882319F0CF
:1013B00069E871E002C06CE971E082E693E00E94A6
:1013C0003E1F0E94F8020E94261C60935A027093EE
:1013D0005B0280935C0290935D0210925602109221
:1013E0005702109258021092590210925202109213
:1013F0005302109254021092550210924E02109213
:101400004F02109250021092510210924A02109212
:101410004B0210924C0210924D0210924602109212
:101420004702109248021092490210924202109212
:101430004302109244021092450286E00E949602F6
:1014400087E892E0CF911F910F91FF90EF900C945D
:1014500003188F929F92AF92BF92CF92DF92EF923A
:10146000FF920F931F93CF93DF93CDB7DEB76997AA
:101470000FB6F894DEBF0FBECDBF0E9469056EE5C2
:10148000C62E62E0D62E70E6E72E72E0F72E02E658
:1014900012E024E632E046E652E068E672E08AE6D0
:1014A00092E00E940B118091660290916702893947
:1014B0009A430CF46BC06EEF70E082E693E00E94FA
:1014C0002C1F609160027091610277FF03C07195DB
:1014D00061957109605271096032710514F460E21E
:1014E00070E060527109882777FD8095982F1F92D0
:1014F0001F921F922FEF2F93A12CB12C6501E12C8D
:101500001DE7F12E00E010E020E030E0A9010E948C
:1015100041218B010F900F900F900F9080916002EE
:101520009091610218161906ACF420911302822FD3
:1015300090E0801B910B97FF0AC01092130282E08B
:10154000698F0E94320899249394698D04C0261BE8
:1015500020931302912C80916002909161021816E1
:101560001906ACF080911302080F111D0F3F1105F1
:1015700049F044F08FEF8093130282E00E9432081A
:10158000939405C0680F6093130201C0912C809161
:10159000660290916702803F984D34F465EF70E0E9
:1015A00082E693E00E942C1F80916802909169026C
:1015B00089399A430CF468C060EF70E082E693E0EA
:1015C0000E942C1F609162027091630277FF03C03A
:1015D000719561957109605271096032710514F459
:1015E00060E270E060527109882777FD8095982F3E
:1015F0001F921F921F922FEF2F93A12CB12C6501E8
:10160000E12C1DE7F12E00E010E020E030E0A90120
:101610000E9441218B010F900F900F900F908091AD
:1016200062029091630218161906A4F420910A012F
:10163000822F90E0801B910B97FF09C010920A0146
:1016400082E0698F0E9432089394698D03C0261B43
:1016500020930A0180916202909163021816190684
:101660009CF080910A01080F111D0F3F110549F0F0
:1016700044F08FEF80930A0182E00E943208939435
:1016800003C0680F60930A0180916802909169021B
:101690008836954C0CF069C06AEE70E082E693E003
:1016A0000E942C1F609162027091630277FF03C059
:1016B000719561957109605271096032710514F478
:1016C00060E270E060527109882777FD8095982F5D
:1016D0001F921F921F9288248A948F92A12CB12C62
:1016E0006501E12C1DE7F12E00E010E020E030E084
:1016F000A9010E9441218B010F900F900F900F9034
:10170000809162029091630218161906ACF4209140
:101710001202C801820F911D8F3F910551F04CF0CC
:101720008092120282E0698F0E9432089394698D40
:1017300003C0260F209312028091620290916302EF
:101740001816190694F020911202822F90E0801B47
:10175000910B97FF07C01092120282E00E9432089C
:10176000939403C0261B20931202809164029091EF
:10177000650289399A430CF468C066EE70E082E62F
:1017800093E00E942C1F60915E0270915F0277FFD0
:1017900003C07195619571096052710960327105DC
:1017A00014F460E270E060527109882777FD80953B
:1017B000982F1F921F921F922FEF2F93A12CB12CC5
:1017C0006501E12C1DE7F12E00E010E020E030E0A3
:1017D000A9010E9441218B010F900F900F900F9053
:1017E00080915E0290915F0218161906A4F4209170
:1017F0000B01822F90E0801B910B97FF09C0109284
:101800000B0182E0698F0E9432089394698D03C0B6
:10181000261B20930B0180915E0290915F021816A7
:1018200019069CF080910B01080F111D0F3F110547
:1018300049F044F08FEF80930B0182E00E94320860
:10184000939403C0680F60930B01809164029091A0
:1018500065028836954C7CF462EE70E082E693E097
:101860000E942C1F80911401882309F495C08FEFEA
:1018700080930B0193944AE050E0692D82E693E057
:101880000E9420206DED70E082E693E00E942C1F04
:1018900091100E948B024AE050E060910B0182E6B9
:1018A00093E00E9420208091130240910B01489FF9
:1018B000C00111242FEF30E0B9010E94662460932B
:1018C000160280911202849FC0011124B9010E9466
:1018D00066246093150280910A01849FC00111243F
:1018E000B9010E9466246093140266ED70E082E6FE
:1018F00093E00E94EA1E4AE050E06091160282E600
:1019000093E00E9420206FEC70E082E693E00E945A
:10191000EA1E4AE050E06091150282E693E00E94E0
:10192000202068EC70E082E693E00E94EA1E4AE024
:1019300050E06091140282E693E00E9427202091FB
:1019400016022983909115029A83809114028B8349
:101950002C839D838E832F83988789872A879B87F3
:101960008C872D879E878F87288B998B8A8B2B8BD3
:101970009C8B8D8B2E8B9F8B888F0E94261C48E121
:10198000BE016F5F7F4F87E892E00E944F18882367
:1019900031F06CEB70E005C010920B016BCF6EEA7A
:1019A00070E082E693E00E942C1F69960FB6F894CF
:1019B000DEBF0FBECDBFDF91CF911F910F91FF9082
:1019C000EF90DF90CF90BF90AF909F908F90089551
:1019D000CF93DF93EC0181E00E943208BE0180E0EA
:1019E00090E00E94551C80E0DF91CF910C9432086A
:1019F00080E590E00E94E80C62E271E080E090E017
:101A00000E94551C82E390E00C94E80CCF92DF9288
:101A1000EF92FF920F931F93823009F45DC058F448
:101A2000813009F01EC160E08AE692E00E948F11C9
:101A30006EED71E057C0853009F45BC0863009F067
:101A400010C16CE871E082E693E00E942C1F87E8E9
:101A500092E00E94F11761E08AE692E00E948F1105
:101A600084E00E94320860E072E080E090E00E9432
:101A7000551C84E00E9432086CEB72E080E090E03C
:101A80000E94551C84E00E94320864E873E080E004
:101A900090E00E94551C84E00E9432086CE474E0DF
:101AA00080E090E00E94551C0E94F80C60E075E018
:101AB00080E090E00E94551C0E94F80C62E776E0FE
:101AC00080E090E00E94551C80E290E00E94E80CCB
:101AD00089E00E949602C2C087E892E00E94031843
:101AE00067EC71E082E693E00E942C1F10922902BD
:101AF000B8C06FEA71E082E693E00E942C1F87E88D
:101B000092E00E94F11761E08AE692E00E948F1154
:101B100061E08AE692E00E94B51161E08AE692E017
:101B20000E94BC1161E08AE692E00E94C31165EA5E
:101B300071E082E693E00E94EA1E81E00E94320892
:101B400060E470E080E090E00E94551C80E00E941C
:101B5000320864EC70E080E090E00E94551C81E067
:101B60000E94320860E470E080E090E00E94551C22
:101B700080E00E94320884E00E9496028091660212
:101B800090916702805F984D81329E4410F10E94CF
:101B9000BE0263EA71E082E693E00E94EA1E60E022
:101BA0008AE692E00E948F11EEE5CE2EE2E0DE2E74
:101BB000F0E6EF2EF2E0FF2E02E612E024E632E03D
:101BC00046E652E068E672E08AE692E00E940B1177
:101BD000D5CF81E00E94320860E870E080E090E0BC
:101BE0000E94551C80E00E94320868E370E080E0AB
:101BF00090E00E94551C81E00E94320860E870E08D
:101C000080E090E00E94551C80E00E94320868E36A
:101C100070E080E090E00E94551C82E693E00E9414
:101C2000181F81E00E94060D60E08AE692E00E94A3
:101C3000B51160E08AE692E00E94BC1160E08AE69D
:101C400092E00E94C31182E00E94060D1F910F9145
:101C5000FF90EF90DF90CF900C948B020E94BE0219
:101C6000FDCF1F910F91FF90EF90DF90CF900895DF
:101C7000CF92DF92EF92FF920E94261CC090250225
:101C8000D0902602E0902702F09028026C197D097E
:101C90008E099F09613072408105910550F0809155
:101CA000660290916702805F984D81329E4408F0F1
:101CB00069C08091790290917A02A0917B02B091E3
:101CC0007C020196A11DB11D8093790290937A0246
:101CD000A0937B02B0937C020E94261C6B017C01C6
:101CE0000E94321C8091830290918402A09185020F
:101CF000B0918602A7019601281B390B4A0B5B0B9A
:101D0000203231054105510550F00E941806C0925D
:101D10008302D0928402E0928502F0928602809142
:101D20007D0290917E02A0917F02B0918002A70176
:101D30009601281B390B4A0B5B0B283131054105F5
:101D4000510520F11092790210927A0210927B02D2
:101D500010927C02C0927D02D0927E02E0927F02BD
:101D6000F092800287E892E00E94031881E090E000
:101D70000E94290A87E892E0FF90EF90DF90CF90D1
:101D80000C94F11785E00E94060D93CFFF90EF9021
:101D9000DF90CF9008954AE069E087E892E00E94E2
:101DA000E0178AE692E00C94DB10EF92FF920F931B
:101DB0001F93CF93DF9300D0CDB7DEB7062F142F3C
:101DC000682F88E992E029833A830E945913602F93
:101DD00088E992E00E9400132981022FE22E3A81C5
:101DE000F32E8E2D801B811740F4F70161917F0146
:101DF00088E992E00E940013F4CF88E992E00E9403
:101E0000761391E0811190E0892F0F900F90DF9170
:101E1000CF911F910F91FF90EF900895CF93DF9393
:101E20001F92CDB7DEB749839E012F5F3F4F41E040
:101E30000E94D50E0F90DF91CF910895DF92EF921F
:101E4000FF920F931F93CF93DF93C62F042F790137
:101E5000682F88E992E00E9459136C2F88E992E07C
:101E60000E94001310E0000F111FD12CCD2DD0E0E7
:101E7000C017D1078CF4CC0FDD1FCE0DDF1D69819B
:101E800088E992E00E940013688188E992E00E944C
:101E90000013D394D394EACF88E992E00E9476139A
:101EA00091E0811190E0892FDF91CF911F910F91E7
:101EB000FF90EF90DF900895CF93DF9300D0CDB7E0
:101EC000DEB75A8349839E012F5F3F4F41E00E9456
:101ED0001E0F0F900F90DF91CF9108953F924F9278
:101EE0005F926F927F928F929F92AF92BF92CF92AA
:101EF000DF92EF92FF920F931F93CF93DF9300D067
:101F000000D000D0CDB7DEB7682E562E742E3A839F
:101F100029830E94261C6B017C01312C412C872DCA
:101F200090E09C838B834801A12CB12C3714B0F531
:101F3000662D88E992E00E945913652D88E992E0A8
:101F40000E94001388E992E00E947613662D88E9CA
:101F500092E00E9459134B815C814319510941322F
:101F6000510514F040E250E0662D88E992E00E94AD
:101F7000561388E992E00E94A812892B59F10115A5
:101F8000110579F10E94261C6C197D098E099F09A3
:101F9000681579058A059B0520F11CC001151105FE
:101FA00089F10E94261C6C197D098E099F0920E089
:101FB00030E0601771078207930720F1872D90E0CA
:101FC000242D332727FD309528173907DCF44424C6
:101FD0004A9418C0872D90E2971508F480E2380ED5
:101FE000A5CFE981FA81E40DF11D47FCFA95FE8346
:101FF000ED8388E992E00E94B012ED81FE8180833A
:102000004394B7CF842D26960FB6F894DEBF0FBE4B
:10201000CDBFDF91CF911F910F91FF90EF90DF9097
:10202000CF90BF90AF909F908F907F906F905F9078
:102030004F903F9008950F931F9389019A0141E0BB
:102040000E946E0F1F910F910895CF92DF92EF9231
:10205000FF920F931F93CF93DF931F92CDB7DEB7FD
:10206000C42ED22E9701AE014F5F5F4F0E941B100E
:102070008823F1F04C2D50E04D1951094F5F5F4F0F
:1020800061E070E002C0660F771FDA94E2F76150FA
:102090007109042E01C0660F0A94EAF729812623EC
:1020A00030E002C0359527954A95E2F7F801208384
:1020B0000F90DF91CF911F910F91FF90EF90DF90E4
:1020C000CF900895EF92FF920F931F93CF93DF93DA
:1020D0001F92CDB7DEB7182F062FF42EE22E2091D7
:1020E000160130911701AE014F5F5F4F0E941B1028
:1020F000898121E030E00F2C01C0220F0A94EAF719
:10210000EE2019F0482F422B03C0422F4095482360
:102110004983602F812F0E940E0F0F90DF91CF9186
:102120001F910F91FF90EF900895DF92EF92FF9231
:102130000F931F93CF93DF931F92CDB7DEB7F82E87
:10214000E62ED42E122F2091160130911701AE01E8
:102150004F5F5F4F0E941B10882319F14D2D50E0F7
:10216000411B51094F5F5F4FE1E0F0E002C0EE0F0D
:10217000FF1F1A95E2F73197042E01C0EE0F0A9463
:10218000EAF701C0000F4A95EAF74E2F4095898182
:102190004823E0234E2B49836E2D8F2D0E940E0F76
:1021A00001C080E00F90DF91CF911F910F91FF90C0
:1021B000EF90DF90089528E6FC01208308950F93A7
:1021C000062F23E042E06AE1FC0180810E94951025
:1021D0000F9108950F93062F22E044E06BE1FC017C
:1021E00080810E9495100F9108950F93062F22E091
:1021F00044E06CE1FC0180810E9495100F910895EC
:102200000F93062F23E042E06CE1FC0180810E94E5
:1022100095100F9108954F925F926F927F928F92D7
:102220009F92AF92BF92CF92DF92EF92FF920F9365
:102230001F93CF93DF93EC015B013A014901280121
:1022400000911601109117019C012F5F3F4F4EE046
:102250006BE388810E946E0F898190E0982F882718
:102260002A81822BF501918380838B8190E0982FC6
:1022700088272C81822BF301918380838D8190E0CC
:10228000982F88272E81822BF40191838083898562
:1022900090E0982F88272A85822BF20191838083F2
:1022A0008B8590E0982F88272C85822BF7019183CE
:1022B00080838D8590E0982F88272E85822BF601CC
:1022C00091838083DF91CF911F910F91FF90EF90C9
:1022D000DF90CF90BF90AF909F908F907F906F9046
:1022E0005F904F9008950F931F93CF93DF93EC016E
:1022F00000911601109117019C012F5F3F4F42E0A2
:1023000061E488810E946E0F898190E0982F882770
:102310002A81822BDF91CF911F910F910895262F53
:1023200046E06BE6FC0180810C9462100F93062F4F
:1023300023E042E06BE6FC0180810E9495100F9142
:102340000895CF93DF93EC0161E00E94961160E065
:10235000CE010E94EA1060E0CE010E94F51060E01C
:10236000CE01DF91CF910C948F11262F42E06CE6C5
:10237000FC0180810C946210262F41E06CE6FC0188
:1023800080810C946210262F40E06CE6FC01808175
:102390000C946210EF92FF920F931F93CF93DF93F1
:1023A000EC01E0901601F09017018C010F5F1F4FB8
:1023B00026E046E065E788810E9425108981DF914B
:1023C000CF911F910F91FF90EF9008950E94CA1135
:1023D00091E0843309F090E0892F08950F931F93C3
:1023E000CF93DF93EC0100911601109117019C012E
:1023F0002F5F3F4F42E066E088810E946E0F898127
:1024000090E0982F88272A81822BDF91CF911F910E
:102410000F9108950F931F93CF93DF93EC010091D9
:102420001601109117019C012F5F3F4F42E068E0B9
:1024300088810E946E0F898190E0982F88272A81D9
:10244000822BDF91CF911F910F9108950F931F93CE
:10245000CF93DF93EC0100911601109117019C01BD
:102460002F5F3F4F42E06AE088810E946E0F8981B2
:1024700090E0982F88272A81822BDF91CF911F919E
:102480000F9108950F931F93CF93DF93EC01009169
:102490001601109117019C012F5F3F4F42E063E14D
:1024A00088810E946E0F898190E0982F88272A8169
:1024B000822BDF91CF911F910F910895AB0163E1C2
:1024C000FC0180810C945C0F0F931F93CF93DF93DB
:1024D000EC0100911601109117019C012F5F3F4FF5
:1024E00042E065E188810E946E0F898190E0982F1B
:1024F00088272A81822BDF91CF911F910F91089518
:10250000AB0165E1FC0180810C945C0F0F931F937C
:10251000CF93DF93EC0100911601109117019C01FC
:102520002F5F3F4F42E067E188810E946E0F8981F3
:1025300090E0982F88272A81822BDF91CF911F91DD
:102540000F910895AB0167E1FC0180810C945C0F51
:102550008091C80290E02091C902821B91090895E0
:102560002091C9028091C802281750F4E22FF0E0B0
:10257000E653FD4F808190E02F5F2093C9020895BC
:102580008FEF9FEF0895E091C9028091C802E8178C
:1025900030F4F0E0E653FD4F808190E008958FEF36
:1025A0009FEF08950895CF92DF92EF92FF920F93DD
:1025B0001F93CF93DF937C01CB018A012091A4026A
:1025C000222389F0EB016B01C40ED51ECC15DD056D
:1025D00069F06991D701ED91FC910190F081E02DB6
:1025E000C7010995F3CF642F0E943214C801DF910F
:1025F000CF911F910F91FF90EF90DF90CF900895B2
:10260000CF93DF931F92CDB7DEB769832091A402E9
:102610002223D1F02091A502203240F021E030E0C9
:10262000FC013383228380E090E015C08091A602F4
:10263000E82FF0E0E955FD4F998190838F5F8093FB
:10264000A6028093A50205C061E0CE0101960E941A
:10265000321481E090E00F90DF91CF910895FC015A
:102660001382128248EE53E060E070E044835583A9
:102670006683778389EE91E0918380830895109239
:10268000C9021092C8021092A6021092A5020C94E0
:102690007D13862F413208F040E26AEC72E00E941E
:1026A0009B131092C9028093C802089521E00C94F4
:1026B000491381E08093A4026093C7021092A6029E
:1026C0001092A50208950F93062F21E04091A502D4
:1026D00067EA72E08091C7020E94DF131092A6029F
:1026E0001092A5021092A4020F91089561E00C943B
:1026F000631388E992E00C942F131092570381E042
:10270000809355031092540361E082E10E94A61B5E
:1027100061E083E10E94A61BE9EBF0E080818E7FFF
:10272000808380818D7F808388E48093B80085E4F6
:102730008093BC000895413208F03FC09091570348
:102740009111FCCF91E090935703209355032FEF05
:102750002093EA0210922F03240F20932E039093CC
:10276000560390915603880F892B809356038091CE
:102770005403813041F410925403809156038093A6
:10278000BB0085EC01C085EE8093BC0080915703AF
:102790008130E1F380912F03841710F440912F03CF
:1027A00020E333E0FB01D9018A2F821B841718F440
:1027B0008D918193F9CF842F089580E008950F9330
:1027C000413208F046C0909157039111FCCF92E03E
:1027D00090935703009355039FEF9093EA02109252
:1027E0002F0340932E03FB0160E373E0DB019A2F7C
:1027F000961B941718F491919D93F9CF109256035C
:1028000090915603880F892B80935603809154032F
:10281000813041F410925403809156038093BB00A1
:1028200085EC01C085EE8093BC00222321F08091CD
:1028300057038230E1F38091EA028F3F61F080918B
:10284000EA02803251F08091EA02803341F483E061
:1028500007C081E005C080E003C082E001C084E0E1
:102860000F910895613298F420915703243089F430
:1028700060930C03FC018EE093E0DC012A2F281BFF
:10288000261718F421912D93F9CF80E0089581E067
:10289000089582E0089585ED8093BC008091BC008E
:1028A00084FDFCCF10925703089585EC8093BC0003
:1028B0001092570308951F920F920FB60F92112492
:1028C0002F933F934F935F936F937F938F939F9338
:1028D000AF93BF93EF93FF938091B900887F8036C9
:1028E00009F49CC068F5883209F45BC090F480312B
:1028F00009F454C038F4882309F4F5C0883009F489
:102900004DC0F5C0883109F44CC0803209F45DC077
:10291000EEC0803409F468C048F4803309F455C02F
:10292000883309F0E4C08093EA02A8C0803509F436
:102930004FC0883509F45DC0883409F0D8C0D5C0CF
:10294000883909F4C6C0A8F4883709F467C038F498
:10295000883609F463C0803709F460C0C8C088387D
:1029600009F4B7C0803909F45FC0803809F0BFC0EE
:102970005BC0803B09F485C038F4803A09F466C036
:10298000883A09F47EC0B3C0803C09F4A6C0883CF4
:1029900009F4A3C0883B09F489C0A9C080915603FB
:1029A00010C090912F0380912E03981770F5E0913D
:1029B0002F0381E08E0F80932F03F0E0E05DFC4F4A
:1029C00080818093BB0085EC85C08093EA028DC036
:1029D000E0912F0381E08E0F80932F038091BB0045
:1029E000F0E0E05DFC4F808390912F0380912E03F7
:1029F0006DC0E0912F0381E08E0F80932F038091B3
:102A0000BB00F0E0E05DFC4F8083809155038111B5
:102A10006CC081E08093540384EA60C083E08093BB
:102A200057031092EB02CFCF8091EB02803208F077
:102A300050C0E091EB0281E08E0F8093EB02809119
:102A4000BB00F0E0E451FD4F8083BDCF8091EB02ED
:102A5000803230F4E091EB02F0E0E451FD4F10825F
:102A60000E944B146091EB0270E0E0915003F091F2
:102A700051038CEE92E009951092EB020E945514DE
:102A800036C084E08093570310920D0310920C031C
:102A9000E0915203F0915303099580910C03811149
:102AA00005C081E080930C0310920E03E0910D03AA
:102AB00081E08E0F80930D03F0E0E25FFC4F808198
:102AC0008093BB0090910D0380910C03981708F43C
:102AD0007ACF85E88093BC000AC085EC8093BC0067
:102AE0001092570304C01092EA020E944B14FF9107
:102AF000EF91BF91AF919F918F917F916F915F9176
:102B00004F913F912F910F900FBE0F901F901895EE
:102B10008EBD00000DB407FEFDCF8EB508952CB517
:102B20002F7D2CBD2CB5237F2CBD2CB52C7F2CBD2F
:102B30002DB521602DBDFC0181810C94A61BFC01EB
:102B40008081918189130C94A61B0895CF92DF9206
:102B5000EF92FF920F931F93CF93DF9300D0CDB7E7
:102B6000DEB78C01E62EF22E60E049835A830E9484
:102B70008F158E2D8F710E948815E82E4981C42EE5
:102B80005A81D52EF40EFC1439F08FEF0E9488156F
:102B9000F60181936F01F7CF61E0C8010E948F15A4
:102BA0008E2D0F900F90DF91CF911F910F91FF907D
:102BB000EF90DF90CF9008951F93CF93DF93EC01B8
:102BC000162F60E00E948F15812F8F710E9488154B
:102BD0008FEF0E948815182F61E0CE010E948F159B
:102BE000812FDF91CF911F910895CF92DF92EF92C5
:102BF000FF920F931F93CF93DF9300D0CDB7DEB733
:102C00008C01E62EF22E60E049835A830E948F15D4
:102C10008E2D8F7180620E948815E82E4981C42E06
:102C20005A81D52EF40EFC1431F0F60181916F011A
:102C30000E948815F8CF61E0C8010E948F158E2D83
:102C40000F900F90DF91CF911F910F91FF90EF9018
:102C5000DF90CF900895EF92FF921F93CF93DF9371
:102C60001F92CDB7DEB77C01162F60E049830E942A
:102C70008F15812F8F7180620E948815182F4981CE
:102C8000842F0E94881561E0C7010E948F15812F53
:102C90000F90DF91CF911F91FF90EF900895AF9229
:102CA000BF92CF92DF92EF92FF920F931F93CF9339
:102CB000DF9300D0CDB7DEB78C01D62EFC01E380C8
:102CC000F42EE41608F4FE2CF8018481811102C070
:102CD000EF1801C0E12C60E0C80129837A830E94CB
:102CE0008F152981822F0E948815C82EAD2C7A81DC
:102CF000B72EFD0CFA1431F0F50181915F010E94AD
:102D00008815F8CFEE2029F080E00E948815EA941B
:102D1000F9CF61E0C8010E948F158C2D0F900F90A4
:102D2000DF91CF911F910F91FF90EF90DF90CF90A7
:102D3000BF90AF9008951F93CF93DF93EC01162FB0
:102D400060E00E948F15812F0E948815182F61E086
:102D5000CE010E948F15812FDF91CF911F91089591
:102D600062EE0C949B1661EE0C949B166FEF0C9424
:102D70009B16862F90E0262F21701F922F939595FA
:102D80008795877099279F938F9364FB882780F995
:102D90001F928F9365FB882780F91F928F9366FBA4
:102DA000882780F91F928F931F926F9380EA93E098
:102DB0009F938F930E94ED248DB79EB70E960FB60A
:102DC000F8949EBF0FBE8DBF0895AF92BF92DF9261
:102DD000EF92FF920F931F93CF93DF9300D0CDB765
:102DE000DEB78C01F42EE22ECB0169837A830E9438
:102DF000DB2469817A81089710F489E001C087E0BB
:102E00001F928F937F936F93EEE6F3E0FF93EF9320
:102E10000E94ED24EF0C0F900F900F900F900F90E9
:102E20000F9036E6A32E33E0B32EFE1499F0DD2486
:102E3000D394DF0C6F2DC8010E94DC151F928F9375
:102E4000BF92AF920E94ED240F900F900F900F90C1
:102E5000FD2CEBCF83E693E09F938F930E94ED24AC
:102E60000F900F900F900F90DF91CF911F910F91C6
:102E7000FF90EF90DF90BF90AF9008952F923F9218
:102E80004F925F926F927F928F929F92AF92BF927A
:102E9000CF92DF92EF92FF920F931F93CF93DF9326
:102EA00000D01F92CDB7DEB77C01242E322E4DB656
:102EB0005EB6CB016A837B830E94DB246A817B81BF
:102EC000089710F489E001C087E01F928F937F93E9
:102ED0006F938BE593E09F938F930E94ED24320CC8
:102EE0000F900F900F900F900F900F9047E5C42E0A
:102EF00043E0D42E52E5A52E53E0B52E2314E9F17C
:102F00006DB67EB6F7012285822E912C8DB79EB7C5
:102F1000881999090FB6F8949EBF0FBE8DBF0DB7E3
:102F20001EB70F5F1F4F91E0920D9983A801622D8C
:102F3000C7010E94A615DF92CF920E94ED24800E59
:102F4000911E0F900F90F1E08F1A91088016910654
:102F500068F0F40180811F928F93BF92AF920E941C
:102F6000ED240F900F900F900F90EDCF0FB6F894C7
:102F70007EBE0FBE6DBE2980C1CF8FE493E09F93CC
:102F80008F930E94ED240F900F900FB6F8945EBEC1
:102F90000FBE4DBE0F900F900F90DF91CF911F91FC
:102FA0000F91FF90EF90DF90CF90BF90AF909F90E8
:102FB0008F907F906F905F904F903F902F900895EB
:102FC000FC0160834183128280E28383148285E066
:102FD00082870895462F603808F04FE765E00C942B
:102FE0002B16CF93DF93EC0160E00E949F1560E009
:102FF000CE010E94DC15482F4D7F60E0CE01DF91AD
:10300000CF910C942B16CF93DF93EC0160E00E94DC
:10301000DC1581FD12C060E0CE010E94DC15482F56
:10302000426060E0CE010E942B1665E070E080E017
:1030300090E0DF91CF910C94551CDF91CF910895D2
:10304000CF93DF93EC01222311F020EB01C020EAA3
:10305000CE010E944F1661E0CE01DF91CF910C941A
:103060009F15CF93DF93EC010E942018CE010E94A0
:10307000B6168073D9F360E0CE010E949F1540E739
:1030800067E0CE010E942B1684FF05C0CE010E948E
:10309000B31680E001C081E0DF91CF91089520E078
:1030A0000C943118EF92FF920F931F93CF93DF93FD
:1030B000CDB7DEB728970FB6F894DEBF0FBECDBFF1
:1030C0007C0109831A832B833C834D835E836F834A
:1030D0007887FC012285AE014F5F5F4F6AE00E9456
:1030E000F515F7012285AE014F5F5F4F60E1C70123
:1030F0000E94F515F701438161E1C7010E942B167B
:1031000028960FB6F894DEBF0FBECDBFDF91CF91EA
:103110001F910F91FF90EF900895BF92CF92DF9291
:10312000EF92FF920F931F93CF93DF93CDB7DEB74C
:1031300028970FB6F894DEBF0FBECDBF6C01B62E38
:10314000E982FA820B831C832D833E834F83588749
:1031500061110AC0FC01428550E0BE016F5F7F4FE4
:1031600005960E94E42407C0F6E0F61708F436C07E
:1031700081E0681308C0EB2DF0E0E451FC4F64914E
:10318000F601228506C0E62FF0E0E451FC4F649181
:1031900021E0AE014F5F5F4FC6010E94F5150B2D78
:1031A00010E0F801EA51FC4F6491F6014381C60139
:1031B0000E942B1662E0C6010E94DC15F801EE5059
:1031C000FC4F049121E030E001C0220F0A95EAF79C
:1031D000822B482F62E0C6010E942B1628960FB65C
:1031E000F894DEBF0FBECDBFDF91CF911F910F913D
:1031F000FF90EF90DF90CF90BF9008951F93CF93F3
:10320000DF93EC01162F62E00E94DC15E12FF0E065
:10321000EE50FC4FE49141E050E001C0440FEA95CC
:10322000EAF74095482362E0CE01DF91CF911F91EC
:103230000C942B16CF93DF93EC010E94031860E0EF
:10324000CE010E94DC15482F416060E0CE010E9453
:103250002B1640E767E0CE010E942B1661E0CE01FD
:103260000E949F158D81882349F02A85AE014B5F0E
:103270005F4F6AE0CE010E94F51504C060E0CE0108
:103280000E94FE186DE1CE010E94DC1581FF03C093
:10329000CE010E94B31684E690E00E947D1C81E07E
:1032A0008F87DF91CF910895CF93DF93EC0160E09A
:1032B0000E948F1580E50E94881583E70E9488157B
:1032C00061E0CE01DF91CF910C948F15CF93DF9306
:1032D000EC010E9454196DE1CE010E94DC15482FCB
:1032E00044606DE1CE010E942B166CE1CE010E947C
:1032F000DC15482F4F636CE1CE010E942B1681E054
:103300008C83DF91CF9108951F93CF93DF93EC01CE
:10331000162F66E00E94DC15887F143020F4612FA0
:10332000660F6F5F01C067E0462F482B66E0CE0155
:10333000DF91CF911F910C942B1666E00E94DC1553
:10334000867086950895EF92FF920F931F93CF9307
:10335000DF931F92CDB7DEB77C018B0166E00E9440
:10336000DC15282F277D0230110511F4206204C0DE
:103370000130110509F42860422F66E0C701298356
:103380000E942B1666E0C7010E94DC1591E029819E
:10339000821390E0892F0F90DF91CF911F910F91B1
:1033A000FF90EF90089566E00E94DC15282F2872A8
:1033B000203231F081E090E0283021F080E0089563
:1033C00082E090E008950F931F93CF93DF93EC0179
:1033D0008B0160E00E94DC15482F437F0115110529
:1033E00031F00130110511F4486001C04C6060E01B
:1033F000CE01DF91CF911F910F910C942B16CF939B
:10340000DF93EC0188819981891719F061E00E94AE
:103410006D1B89819881981719F061E00E946D1BDE
:103420000E942B1B60E0CE010E949F1561E0CE013F
:103430000E948F1565E070E080E090E00E94551CCE
:103440004FE564E0CE010E942B1662E070E0CE01F1
:103450000E94A319882311F081E08A8360E070E064
:10346000CE010E94A31962E070E0CE010E94E31930
:10347000CE010E94541940E06DE1CE010E942B164E
:1034800040E06CE1CE010E942B1640E767E0CE01E0
:103490000E942B166CE4CE010E94EA17CE010E9416
:1034A000B016CE010E94B316CE010E94031860E050
:1034B000CE010E94DC15482F4E7F60E0CE01DF91E7
:1034C000CF910C942B161F93CF93DF93EC0160E008
:1034D0000E94DC15182F61E0CE010E94DC1513FD5F
:1034E00002C0882329F012FF06C082E090E005C0E8
:1034F00080E090E002C081E090E0DF91CF911F91E9
:103500000895CF93DF93EC010E94B616682FCE0189
:103510000E94B91622E04AE062E473E0CE010E9404
:103520003E1724E04CE065E373E0CE010E94E5160F
:1035300021E040E16DE273E0CE010E943E1726E0FB
:1035400041E162E273E0CE010E94E51621E041E034
:103550006CE173E0CE010E94E51621E042E062E1F9
:1035600073E0CE010E94E51621E045E06CE073E0D7
:10357000CE010E94E51621E046E063E073E0CE0153
:103580000E94E51621E040E06CEF72E0CE010E945F
:10359000E51622E04CE16EEE72E0CE010E94E516E7
:1035A000CE010E94D319880F991F8E5A9B4FFC01A0
:1035B000859194919F938F938CED92E09F938F933D
:1035C0000E94ED24EA81F0E0EE0FFF1FE55CFB4F67
:1035D000859194919F938F938DEC92E09F938F931D
:1035E0000E94ED24CE010E94631A880F991F835E0A
:1035F0009B4FFC01859194919F938F938AEB92E06E
:103600009F938F930E94ED24CE010E949D19E82F75
:10361000F0E0EE0FFF1FE850FC4F859194919F93CF
:103620008F9389EA92E09F938F930E94ED248DB748
:103630009EB740960FB6F8949EBF0FBE8DBFDF9128
:10364000CF91089520E1629FB00111244F70462B65
:1036500064E00C942B1661E08AE00E94A61B61E0F6
:103660008AE00E946D1B8CB580618CBD8CB5806436
:103670008CBD61E08DE00E946D1B61E08BE00C94DD
:103680006D1BCB010C940D27833081F028F4813021
:1036900099F08230A1F008958730A9F08830B9F010
:1036A0008430D1F4809180008F7D03C080918000B0
:1036B0008F7780938000089584B58F7702C084B59A
:1036C0008F7D84BD08958091B0008F7703C0809175
:1036D000B0008F7D8093B0000895CF93DF9390E08A
:1036E000FC01E058FB4F2491FC01EC56FB4F849108
:1036F000882349F190E0880F991FFC01EE54FB4F9D
:10370000A591B49188559B4FFC01C591D4919FB769
:10371000611108C0F8948C91209582238C93888144
:1037200082230AC0623051F4F8948C91322F309584
:1037300083238C938881822B888304C0F8948C9196
:10374000822B8C939FBFDF91CF9108950F931F938E
:10375000CF93DF931F92CDB7DEB7282F30E0F9016A
:10376000E459FB4F8491F901E058FB4F1491F901A2
:10377000EC56FB4F04910023C9F0882321F06983A4
:103780000E94441B6981E02FF0E0EE0FFF1FE85517
:10379000FB4FA591B4919FB7F8948C91611103C030
:1037A0001095812301C0812B8C939FBF0F90DF91D7
:1037B000CF911F910F9108951F920F920FB60F9204
:1037C00011242F933F938F939F93AF93BF93809137
:1037D0005A0390915B03A0915C03B0915D0330911B
:1037E000590323E0230F2D3720F40196A11DB11DAD
:1037F00005C026E8230F0296A11DB11D2093590391
:1038000080935A0390935B03A0935C03B0935D0392
:1038100080915E0390915F03A0916003B09161037A
:103820000196A11DB11D80935E0390935F03A09349
:103830006003B0936103BF91AF919F918F913F91CE
:103840002F910F900FBE0F901F9018952FB7F894DF
:1038500060915A0370915B0380915C0390915D03CA
:103860002FBF08953FB7F89480915E0390915F0356
:10387000A0916003B091610326B5A89B05C02F3FBE
:1038800019F00196A11DB11D3FBF6627782F892F22
:103890009A2F620F711D811D911D42E0660F771FE7
:1038A000881F991F4A95D1F70895CF92DF92EF9222
:1038B000FF92CF93DF936B017C010E94321CEB01DE
:1038C000C114D104E104F10489F00E9488210E940E
:1038D000321C6C1B7D0B683E734090F381E0C81A6C
:1038E000D108E108F108C851DC4FEACFDF91CF9150
:1038F000FF90EF90DF90CF900895019739F0880FF7
:10390000991F880F991F02970197F1F708957894EE
:1039100084B5826084BD84B5816084BD85B58260D4
:1039200085BD85B5816085BDEEE6F0E08081816072
:103930008083E1E8F0E01082808182608083808172
:1039400081608083E0E8F0E0808181608083E1EB4A
:10395000F0E0808184608083E0EBF0E08081816032
:103960008083EAE7F0E080818460808380818260E8
:1039700080838081816080838081806880831092D1
:10398000C10008951F920F920FB60F9211242F932A
:103990008F939F93EF93FF93E0917203F0917303E2
:1039A0008081E0917803F091790382FD12C09081CB
:1039B00080917B038F5F8F7320917C03821751F07E
:1039C000E0917B03F0E0EE59FC4F958F80937B03F1
:1039D00001C08081FF91EF919F918F912F910F9066
:1039E0000FBE0F901F9018951F920F920FB60F9257
:1039F00011242F933F934F935F936F937F938F93F4
:103A00009F93AF93BF93EF93FF9382E693E00E945F
:103A1000A21DFF91EF91BF91AF919F918F917F91E7
:103A20006F915F914F913F912F910F900FBE0F902B
:103A30001F90189582E693E00E94671D21E0892B74
:103A400009F420E0822F0895109265031092640318
:103A500088EE93E0A0E0B0E0809366039093670364
:103A6000A0936803B093690389EF91E09093630397
:103A70008093620385EC90E090936F0380936E03D4
:103A800084EC90E0909371038093700380EC90E05D
:103A9000909373038093720381EC90E0909375038D
:103AA0008093740382EC90E0909377038093760385
:103AB00086EC90E0909379038093780310927B03D7
:103AC00010927C0310927D0310927E030895FC01F6
:103AD000818D228D90E0805C9F4F821B91098F73B6
:103AE00099270895FC01918D828D981731F0828D70
:103AF000E80FF11D858D90E008958FEF9FEF0895F9
:103B0000FC01918D828D981761F0828DDF01A80FE5
:103B1000B11D5D968C91928D9F5F9F73928F90E007
:103B200008958FEF9FEF08958AE19DE1892B49F079
:103B300080E090E0892B29F00E941A1D81110C94DD
:103B400000000895FC01848DDF01A80FB11DA35A68
:103B5000BF4F2C91848D90E001968F739927848FAD
:103B6000A689B7892C93A089B1898C9180648C93A4
:103B7000938D848D981306C00288F389E02D80818F
:103B80008F7D80830895CF93DF93EC01888D882308
:103B9000C9F0EA89FB89808185FD05C0A889B989BA
:103BA0008C9186FD0FC00FB607FCF5CF808185FF95
:103BB000F2CFA889B9898C9185FFEDCFCE010E9403
:103BC000A21DE7CFDF91CF910895CF92DF92FF92B0
:103BD0000F931F93CF93DF931F92CDB7DEB76C0186
:103BE000DC015B969C915B975C968C915C9798133B
:103BF00007C05096ED91FC915197808185FD32C0B0
:103C0000F601038D10E00F5F1F4F0F731127F02E89
:103C1000F601848DF81211C00FB607FCF9CFD6015A
:103C20005096ED91FC915197808185FFF1CFC601AF
:103C300069830E94A21D6981EBCF838DE80FF11D7E
:103C4000E35AFF4F6083D6015B960C935B975296C5
:103C5000ED91FC91539780818062808381E058963A
:103C60008C930DC0D6015696ED91FC9157976083C9
:103C70005096ED91FC91519780818064808381E022
:103C800090E00F90DF91CF911F910F91FF90DF9007
:103C9000CF900895BF92CF92DF92EF92FF92CF9391
:103CA000DF93EC016A017B01B22EE889F98982E099
:103CB0008083411581EE580761057105A1F060E030
:103CC00079E08DE390E0A70196010E947A242150CB
:103CD0003109410951095695479537952795211581
:103CE00080E1380798F0E889F989108260E874E883
:103CF0008EE190E0A70196010E947A2421503109BB
:103D0000410951095695479537952795EC85FD85CD
:103D10003083EE85FF852083188EEC89FD89B08283
:103D2000EA89FB89808180618083EA89FB898081BF
:103D300088608083EA89FB89808180688083EA8942
:103D4000FB8980818F7D8083DF91CF91FF90EF9001
:103D5000DF90CF90BF900895CF92DF92EF92FF92C5
:103D60000F931F93CF93DF936C017A01EB01E60E63
:103D7000F71E00E010E0CE15DF0561F06991D60175
:103D8000ED91FC910190F081E02DC6010995080F9D
:103D9000191FF1CFC801DF91CF911F910F91FF90B3
:103DA000EF90DF90CF9008956115710581F0DB01F0
:103DB0000D900020E9F7AD0141505109461B570B0A
:103DC000DC01ED91FC910280F381E02D099480E00B
:103DD00090E00895EF92FF920F931F93CF93DF939C
:103DE0008C01FB01C0E0D0E064917F018FEFE81A05
:103DF000F80A662361F0D801ED91FC910190F08101
:103E0000E02DC8010995C80FD91FF701EDCFCE01EC
:103E1000DF91CF911F910F91FF90EF9008950C9437
:103E2000D41EDC01ED91FC910190F081E02D09940C
:103E30000F931F93CF93DF93EC016DE00E94111F4E
:103E40008C016AE0CE010E94111F800F911FDF914B
:103E5000CF911F910F9108950F931F93CF93DF93ED
:103E6000EC010E94EA1E8C01CE010E94181F800FF7
:103E7000911FDF91CF911F910F9108950F931F9381
:103E8000CF93DF93EC010E94D41E8C01CE010E94DF
:103E9000181F800F911FDF91CF911F910F910895EF
:103EA0008F929F92AF92BF92CF92DF92EF92FF924A
:103EB0000F931F93CF93DF93CDB7DEB7A1970FB6C4
:103EC000F894DEBF0FBECDBF7C01C42EE52FCB0121
:103ED000D22E19A221E02D1510F02AE0D22E8E014B
:103EE0000F5D1F4F8D2C912CA12CB12C6C2D7E2F92
:103EF000A50194010E947A248C2DD29E8019112450
:103F0000015011098A3014F4805D01C0895CF80108
:103F10008083211531054105510521F0C22EE32F83
:103F2000CA01E4CFB801C7010E94D41EA1960FB602
:103F3000F894DEBF0FBECDBFDF91CF911F910F91DF
:103F4000FF90EF90DF90CF90BF90AF909F908F90B9
:103F50000895CF92DF92EF92FF920F931F93CF932A
:103F6000DF93EC016A017B012115310579F4E881C9
:103F7000F9810190F081E02D642FDF91CF911F91A5
:103F80000F91FF90EF90DF90CF9009942A30310588
:103F9000E9F477FF1AC06DE20E94111F8C014427DB
:103FA0005527BA014C195D096E097F092AE0CE0137
:103FB0000E94501F800F911FDF91CF911F910F9191
:103FC000FF90EF90DF90CF9008952AE0B701A6010F
:103FD000CE01DF91CF911F910F91FF90EF90DF9075
:103FE000CF900C94501F9A01AB01662757FD609546
:103FF000762F0C94A91F0F931F93CF93DF93EC019F
:104000009A01AB01662757FD6095762F0E94A91F84
:104010008C01CE010E94181F800F911FDF91CF915C
:104020001F910F9108952115310541F4DC01ED91A7
:10403000FC910190F081E02D642F09940C94501FA5
:104040009A01462F50E060E070E00C9413200F932B
:104050001F93CF93DF93EC019A01462F50E060E06D
:1040600070E00E9413208C01CE010E94181F800F67
:10407000911FDF91CF911F910F9108959A01AB018C
:1040800060E070E00C9413204F925F926F927F92E9
:104090008F929F92AF92BF92CF92DF92EF92FF9258
:1040A0000F931F93CF93DF93EC016A017B01B22E34
:1040B0009A01AB01C701B6010E943D24882319F083
:1040C00065E072E027C026013701E89477F82FEF0A
:1040D0003FEF4FE75FE7C301B2010E943D2481112A
:1040E0000DC02FEF3FEF4FE75FE7C301B2010E9422
:1040F000162218161CF469E072E00CC02FEF3FEF97
:104100004FE75FE4C701B6010E948A231816ACF49A
:104110006DE072E0CE01DF91CF911F910F91FF9082
:10412000EF90DF90CF90BF90AF909F908F907F9057
:104130006F905F904F900C94D41E2FEF3FEF4FE79E
:104140005FECC701B6010E94162287FDE1CF20E097
:1041500030E0A901C701B6010E94162287FF0AC0FC
:104160006DE2CE010E94111F8C01F7FAF094F7F86E
:10417000F09402C000E010E0A12C60E070E080E06C
:104180009FE3AB1441F020E030E040E251E40E94B4
:104190001A22A394F6CF9B01AC01C701B6010E947D
:1041A0008A216B017C010E9487222B013C010E9425
:1041B000B3229B01AC01C701B6010E9489216B01AA
:1041C0007C012AE0B301A201CE010E94501F080F1A
:1041D000191FBB2039F06AE971E0CE010E94D41E9C
:1041E000080F191F7B2C772041F120E030E040E2DE
:1041F00051E4C701B6010E9495236B017C010E9426
:1042000082224B01AA2497FCA094BA2C2AE030E029
:10421000B501A401CE010E94A91F080F191FC501F5
:10422000B4010E94B5229B01AC01C701B6010E94F6
:1042300089216B017C017A94D6CFC801DF91CF919F
:104240001F910F91FF90EF90DF90CF90BF90AF90B4
:104250009F908F907F906F905F904F9008950C94F7
:10426000442008950E94871C0E9431210E945D080D
:10427000C4E9DDE10E94380E2097E1F30E94941D0D
:10428000F9CF4F925F926F927F92AF92BF92CF928F
:10429000DF92EF92FF920F931F93CF93DF93CDB7EF
:1042A000DEB729013A01621B730B840B950B298938
:1042B0003A894B895C892A193B094C095D09298B8C
:1042C0003A8B4B8B5C8B9B01AC0169897A898B891A
:1042D0009C890E945624E418F50806091709A801CC
:1042E00097010E949C242A0D3B1D4C1D5D1DCA0197
:1042F000B901DF91CF911F910F91FF90EF90DF9067
:10430000CF90BF90AF907F906F905F904F90089547
:1043100008955058BB27AA270ED0C2C1B3D130F0A0
:10432000B8D120F031F49F3F11F41EF483C10EF494
:10433000E095E7FB79C1E92FC4D180F3BA17620792
:1043400073078407950718F071F49EF5DCC10EF42D
:10435000E0950B2EBA2FA02D0B01B90190010C0195
:10436000CA01A0011124FF27591B99F0593F50F4AD
:10437000503E68F11A16F040A22F232F342F442705
:10438000585FF3CF469537952795A795F0405395FD
:10439000C9F77EF41F16BA0B620B730B840BBAF0CD
:1043A0009150A1F0FF0FBB1F661F771F881FC2F738
:1043B0000EC0BA0F621F731F841F48F4879577954C
:1043C0006795B795F7959E3F08F0B3CF9395880F03
:1043D00008F09927EE0F979587950895DF93DD27CD
:1043E000B92FBF7740E85FE31616170648075B074B
:1043F00010F4D92F93D19F938F937F936F933AD2D9
:10440000E8E6F0E01AD14CD12F913F914F915F91A6
:1044100098D1DD2349F09058A2EA2AED3FE049EC1B
:104420005FE3D0785D2787DFDF913AC1D9D008F408
:1044300081E008950CD034C12CD140F023D130F06C
:1044400021F45F3F19F0F0C051115EC1F3C039D1C2
:1044500098F39923C9F35523B1F3951B550BBB274B
:10446000AA2762177307840738F09F5F5F4F220FF8
:10447000331F441FAA1FA9F333D00E2E3AF0E0E8F1
:1044800030D091505040E695001CCAF729D0FE2F3D
:1044900027D0660F771F881FBB1F261737074807CF
:1044A000AB07B0E809F0BB0B802DBF01FF27935885
:1044B0005F4F2AF09E3F510568F0B6C025C15F3FAF
:1044C000ECF3983EDCF3869577956795B795F7956D
:1044D0009F5FC9F7880F911D9695879597F9089565
:1044E000E1E0660F771F881FBB1F62177307840701
:1044F000BA0720F0621B730B840BBA0BEE1F88F710
:10450000E095089504D06894B111FEC00895E1D0FB
:1045100088F09F5790F0B92F9927B751A0F0D1F0AC
:10452000660F771F881F991F1AF0BA95C9F712C036
:10453000B13081F0E8D0B1E00895E5C0672F782F61
:104540008827B85F39F0B93FCCF3869577956795A2
:10455000B395D9F73EF490958095709561957F4F0E
:104560008F4F9F4F0895E89409C097FB3EF49095B4
:104570008095709561957F4F8F4F9F4F9923A9F03C
:10458000F92F96E9BB279395F695879577956795CB
:10459000B795F111F8CFFAF4BB0F11F460FF1BC00F
:1045A0006F5F7F4F8F4F9F4F16C0882311F096E9A2
:1045B00011C0772321F09EE8872F762F05C0662350
:1045C00071F096E8862F70E060E02AF09A95660F09
:1045D000771F881FDAF7880F9695879597F90895C2
:1045E000990F0008550FAA0BE0E8FEEF1616170604
:1045F000E807F907C0F012161306E407F50798F06C
:10460000621B730B840B950B39F40A2661F0232B84
:10461000242B252B21F408950A2609F4A140A69500
:104620008FEF811D811D089597F99F6780E870E0E5
:1046300060E008959FEF80EC0895DF93CF931F9380
:104640000F93FF92EF92DF927B018C01689405C07B
:10465000DA2EEF0176D0FE01E894A59125913591EF
:1046600045915591AEF3EF0166DEFE019701A80179
:10467000DA9479F7DF90EF90FF900F911F91CF912F
:10468000DF91089500240A941616170618060906E5
:10469000089500240A9412161306140605060895B8
:1046A000092E0394000C11F4882352F0BB0F40F440
:1046B000BF2B11F460FF04C06F5F7F4F8F4F9F4F80
:1046C000089557FD9058440F551F59F05F3F71F002
:1046D0004795880F97FB991F61F09F3F79F0879569
:1046E0000895121613061406551FF2CF4695F1DFF2
:1046F00008C0161617061806991FF1CF8695710582
:10470000610508940895E894BB2766277727CB01B5
:1047100097F9089565DF08F48FEF08959B01AC01C8
:1047200060E070E080E89FE385CE0BD0B9CFAADFD0
:1047300028F0AFDF18F0952309F076CF7BCF112456
:10474000E3CFBFDFA0F3959FD1F3950F50E0551F46
:10475000629FF001729FBB27F00DB11D639FAA27D6
:10476000F00DB11DAA1F649F6627B00DA11D661F25
:10477000829F2227B00DA11D621F739FB00DA11D46
:10478000621F839FA00D611D221F749F3327A00D00
:10479000611D231F849F600D211D822F762F6A2F9C
:1047A00011249F5750408AF0E1F088234AF0EE0F21
:1047B000FF1FBB1F661F771F881F91505040A9F72E
:1047C0009E3F510570F030CF9FCF5F3FECF3983E96
:1047D000DCF3869577956795B795F795E7959F5F95
:1047E000C1F7FE2B880F911D9695879597F908952F
:1047F00011F40EF41FCF45C06CDFD0F39923D9F329
:10480000CEF39F57550B87FF4AD00024A0E640EA1D
:10481000900180585695979528F4805C660F771F15
:10482000881F20F026173707480730F4621B730BE8
:10483000840B202931294A2BA6951794079420250B
:1048400031254A2758F7660F771F881F20F0261753
:104850003707480730F4620B730B840B200D311DB2
:10486000411DA09581F7B901842F9158880F969525
:10487000879508959B01AC0158CFB2DE880B990B48
:1048800008959F3F31F0915020F487957795679573
:10489000B795880F911D9695879597F90895915032
:1048A0005040660F771F881FD2F70895DB018F9362
:1048B0009F930E94BB24BF91AF91A29F800D911D39
:1048C000A39F900DB29F900D11240895AA1BBB1BAE
:1048D00051E107C0AA1FBB1FA617B70710F0A61B00
:1048E000B70B881F991F5A95A9F780959095BC0121
:1048F000CD010895A1E21A2EAA1BBB1BFD010DC01C
:10490000AA1FBB1FEE1FFF1FA217B307E407F5077F
:1049100020F0A21BB30BE40BF50B661F771F881F5B
:10492000991F1A9469F760957095809590959B01F1
:10493000AC01BD01CF010895052E97FB1EF4009434
:104940000E94B32457FD07D00E947A2407FC03D0AD
:104950004EF40C94B32450954095309521953F4FDB
:104960004F4F5F4F089590958095709561957F4F5B
:104970008F4F9F4F08950E94CC24A59F900DB49F08
:10498000900DA49F800D911D11240895EE0FFF1F1F
:104990000590F491E02D0994A29FB001B39FC0014E
:1049A000A39F700D811D1124911DB29F700D811D5B
:1049B0001124911D0895FC0105900020E9F78095D0
:1049C00090958E0F9F1F0895FB01DC0102C001909E
:1049D0000D9241505040D8F70895A0E0B0E0E3EFC9
:1049E000F4E20C94C927FE0137966191719101E0C0
:1049F00014E0D8018D919C91DC0113962C911397B2
:104A0000286013962C93AF010E943B25D801ED91AD
:104A1000FC912381277F2383E4E00C94E527AEE01B
:104A2000B0E0E5E1F5E20C94C9278C01CA0146E04B
:104A30004C831A83098377FF02C060E070E86150FD
:104A400071097E836D83A901BC01CE0101960E948C
:104A50003B254D815E8157FD0AC02F813885421765
:104A600053070CF49A01F801E20FF31F10822E96FF
:104A7000E4E00C94E527ACE0B0E0E1E4F5E20C946E
:104A8000BB277C016B018A01FC011782168283819E
:104A900081FFBDC1CE0101964C01F7019381F60162
:104AA00093FD859193FF81916F01882309F4ABC138
:104AB000853239F493FD859193FF81916F018532A1
:104AC00029F4B70190E00E942B27E7CF512C312C1D
:104AD00020E02032A0F48B3269F030F4803259F0BB
:104AE000833269F420612CC08D3239F0803339F47F
:104AF000216026C02260246023C0286021C027FDD9
:104B000027C030ED380F3A3078F426FF06C0FAE0BF
:104B10005F9E300D1124532E13C08AE0389E300D55
:104B20001124332E20620CC08E3221F426FD6BC17D
:104B3000206406C08C3611F4206802C0883641F427
:104B4000F60193FD859193FF81916F018111C1CF92
:104B5000982F9F7D9554933028F40C5F1F4FFFE3EF
:104B6000F9830DC0833631F0833771F0833509F056
:104B70005BC022C0F801808189830E5F1F4F4424EF
:104B80004394512C540115C03801F2E06F0E711C92
:104B9000F801A080B18026FF03C0652D70E002C03F
:104BA0006FEF7FEFC5012C870E9420272C01830126
:104BB0002C852F77222E17C03801F2E06F0E711C62
:104BC000F801A080B18026FF03C0652D70E002C00F
:104BD0006FEF7FEFC5012C870E9415272C012C85D4
:104BE0002068222E830123FC1BC0832D90E04816F1
:104BF0005906B0F4B70180E290E00E942B273A9466
:104C0000F4CFF50127FC859127FE81915F01B70163
:104C100090E00E942B2731103A94F1E04F1A51088E
:104C20004114510471F7E5C0843611F0893639F525
:104C3000F80127FF07C060817181828193810C5F39
:104C40001F4F08C060817181882777FD8095982F5C
:104C50000E5F1F4F2F76B22E97FF09C0909580955B
:104C6000709561957F4F8F4F9F4F2068B22E2AE03D
:104C700030E0A4010E945D27A82EA81844C0853703
:104C800029F42F7EB22E2AE030E025C0F22FF97FE2
:104C9000BF2E8F36C1F018F4883579F0B4C0803754
:104CA00019F0883721F0AFC02F2F2061B22EB4FE4B
:104CB0000DC08B2D8460B82E09C024FF0AC09F2F21
:104CC0009660B92E06C028E030E005C020E130E053
:104CD00002C020E132E0F801B7FE07C060817181B7
:104CE000828193810C5F1F4F06C06081718180E0DB
:104CF00090E00E5F1F4FA4010E945D27A82EA81808
:104D0000FB2DFF77BF2EB6FE0BC02B2D2E7FA514DB
:104D100050F4B4FE0AC0B2FC08C02B2D2E7E05C094
:104D20007A2C2B2D03C07A2C01C0752C24FF0DC0CA
:104D3000FE01EA0DF11D8081803311F4297E09C046
:104D400022FF06C07394739404C0822F867809F002
:104D5000739423FD13C020FF06C05A2C731418F45B
:104D6000530C5718732C731468F4B70180E290E069
:104D70002C870E942B2773942C85F5CF731410F485
:104D8000371801C0312C24FF12C0B70180E390E036
:104D90002C870E942B272C8522FF17C021FF03C0E0
:104DA00088E590E002C088E790E0B7010CC0822F50
:104DB000867859F021FD02C080E201C08BE227FD18
:104DC0008DE2B70190E00E942B27A51438F4B701BB
:104DD00080E390E00E942B275A94F7CFAA94F40125
:104DE000EA0DF11D8081B70190E00E942B27A110F0
:104DF000F5CF332009F451CEB70180E290E00E9454
:104E00002B273A94F6CFF7018681978102C08FEF66
:104E10009FEF2C96E2E10C94D727F999FECF92BD33
:104E200081BDF89A992780B50895FC0105906150DD
:104E300070400110D8F7809590958E0F9F1F0895B0
:104E4000FC016150704001900110D8F78095909559
:104E50008E0F9F1F08950F931F93CF93DF93182FEB
:104E6000092FEB018B8181FD03C08FEF9FEF20C0E5
:104E700082FF10C04E815F812C813D814217530714
:104E80007CF4E881F9819F012F5F3F4F39832883AC
:104E9000108306C0E885F985812F0995892B29F7AC
:104EA0002E813F812F5F3F4F3F832E83812F902F95
:104EB000DF91CF911F910F910895FA01AA27283011
:104EC00051F1203181F1E8946F936E7F6E5F7F4FD7
:104ED0008F4F9F4FAF4FB1E03ED0B4E03CD0670F53
:104EE000781F891F9A1FA11D680F791F8A1F911DA6
:104EF000A11D6A0F711D811D911DA11D20D009F4F6
:104F000068943F912AE0269F11243019305D319337
:104F1000DEF6CF010895462F4770405D4193B3E020
:104F20000FD0C9F7F6CF462F4F70405D4A3318F0C7
:104F3000495D31FD4052419302D0A9F7EACFB4E078
:104F4000A6959795879577956795BA95C9F7009730
:104F50006105710508959B01AC010A2E06945795D1
:104F6000479537952795BA95C9F7620F731F841F28
:104F7000951FA01D08952F923F924F925F926F92BE
:104F80007F928F929F92AF92BF92CF92DF92EF92D9
:104F9000FF920F931F93CF93DF93CDB7DEB7CA1B5A
:104FA000DB0B0FB6F894DEBF0FBECDBF09942A8885
:104FB000398848885F846E847D848C849B84AA842D
:104FC000B984C884DF80EE80FD800C811B81AA81BA
:104FD000B981CE0FD11D0FB6F894DEBF0FBECDBF85
:084FE000ED010895F894FFCFE4
:104FE800000005048000010000003232CD01D50127
:104FF800DC010A000101E80320696E20256C6420A9
:105008006D732E0A00253031306C643A2053656E7A
:10501800742027542720746F2020202530356F00F6
:10502800253031306C643A20274C2720746F2020BB
:10503800202530356F00253031306C643A20274BFD
:10504800272066726F6D202530356F0A00200020FA
:1050580020526563762073697A653D2569207661FB
:105068006C75653D25730A0D004D50553630353049
:1050780020636F6E6E65637465642E004D505536FF
:10508800303530206572726F722E000920726F6C95
:10509800653A2025730A0D00253031306C643A20BA
:1050A8005374617274696E672075700A00696E7650
:1050B800616C69640073656E64657200726563652E
:1050C8006976657200000000000013D312A812B0C0
:1050D80012C312D21200000000E51DAC1E671D802D
:1050E8001D721DC31D6E616E00696E66006F766667
:0250F8000000B6
:00000001FF
